:0B08BB0048656C6C6F776F726C640016
:1008830043878075985053890F438920758BF4757E
:070893008DF4C2ABD28E22EE
:10089A00EF1FAC0670011E4C600A7D027CC7DCFEAD
:0408AA00DDFC80EC05
:0108AE002227
:10085100120883D2997BFF7A0879BB120800C299EA
:090861007FE87E0312089A80EA88
:030000000208AF44
:0C08AF00787FE4F6D8FD7581070208513F
:1008000012086A601CFF09E970010AC0E0EAC0E052
:10081000EBC0E012082AD0E0FBD0E0FAD0E0F9808B
:0A082000DF7F0A12082AE4FEFF221F
:10086A00BB010689828A83E0225002E722BBFE028C
:09087A00E32289828A83E49322BF
:10082A00EFB40A07740D120835740A309811A899A2
:10083A00B8130CC2983098FDA899C298B811F6302E
:07084A0099FDC299F5992206
:00000001FF
