:0408E9000208000001
:03000B0002088C5C
:0B088C00C0E0C0D075D000C000C00765
:10089700758A66758CFC0509E50970020508C3941D
:1008A700E8E50894034013750800750900AFA078C0
:0A08B70001EF08800123D8FDF5A031
:0908C100D007D000D0D0D0E03205
:0808E1001208CA75A0FE80FE9A
:1008CA005389F0438901758A66758CFCC28DD28C76
:0708DA00D2AFD2A9C2B9227E
:03000000020800F3
:0C080000787FE4F6D8FD758109020847F6
:10080C000208E1E493A3F8E493A34003F68001F219
:10081C0008DFF48029E493A3F85407240CC8C333ED
:10082C00C4540F4420C8834004F456800146F6DFBC
:10083C00E4800B01020408102040809008E9E47E5B
:10084C00019360BCA3FF543F30E509541FFEE493B1
:10085C00A360010ECF54C025E060A840B8E493A378
:10086C00FAE493A3F8E493A3C8C582C8CAC583CAA3
:10087C00F0A3C8C582C8CAC583CADFE9DEE780BE5B
:0108ED00000A
:00000001FF
