:0C0950000A083F065B4F666D7D077F6F55
:10088C00EF14B4080050549008A175F003A4C5836C
:10089C0025F0C583730208B90208BD0208C102081D
:1008AC00C50208C90208D10208D90208E1D2A48005
:1008BC000ED2A48012D2A48016D2A4801AC2A4D2C2
:1008CC00A3D2A28016C2A4D2A3C2A2800EC2A4C27A
:1008DC00A3D2A28006C2A4C2A3C2A274082DF8E6B9
:0D08EC00F5807F017E0012092CE4F58022CA
:0E0942001208F9AD13AC127F0112088C80F57B
:03002300020914BB
:10091400C0D075D000C007309809C298AF9975123D
:08092400008F13D007D0D03280
:10092C00EF1FAC0670011E4C600B007D027CC7DC17
:05093C00FEDDFC80EB74
:010941002293
:1008F90043878075985053890F438920758BF47508
:0B0909008DF4C2ABD28ED2AFD2AC2274
:06095D008F993099FD2284
:03000000020800F3
:0C080000787FE4F6D8FD758113020847EC
:10080C00020942E493A3F8E493A34003F68001F2B7
:10081C0008DFF48029E493A3F85407240CC8C333ED
:10082C00C4540F4420C8834004F456800146F6DFBC
:10083C00E4800B0102040810204080900950E47EF3
:10084C00019360BCA3FF543F30E509541FFEE493B1
:10085C00A360010ECF54C025E060A840B8E493A378
:10086C00FAE493A3F8E493A3C8C582C8CAC583CAA3
:10087C00F0A3C8C582C8CAC583CADFE9DEE780BE5B
:01095C00009A
:00000001FF
